{
  "transactions": [
    {
      "hash": "0xe460a1f7953e14d5f5f5d74d6ae9fa897f8cb4fccd52c4de30a6f42ed311b216",
      "transactionType": "CALL",
      "contractName": null,
      "contractAddress": "0xe72fc88185eb7403eb730a430b8cd545662976fd",
      "function": "mint(address,uint256,uint256,bytes)",
      "arguments": [
        "0x0766AA63A1BCE9f8bd24c7Ca476AC78cAc570DD8",
        "0",
        "100",
        "0x"
      ],
      "transaction": {
        "from": "0x0766aa63a1bce9f8bd24c7ca476ac78cac570dd8",
        "to": "0xe72fc88185eb7403eb730a430b8cd545662976fd",
        "gas": "0x1068f",
        "value": "0x0",
        "input": "0x731133e90000000000000000000000000766aa63a1bce9f8bd24c7ca476ac78cac570dd80000000000000000000000000000000000000000000000000000000000000000000000000000000000000000000000000000000000000000000000000000006400000000000000000000000000000000000000000000000000000000000000800000000000000000000000000000000000000000000000000000000000000000",
        "nonce": "0x2",
        "chainId": "0x13882"
      },
      "additionalContracts": [],
      "isFixedGasLimit": false
    },
    {
      "hash": "0x6f257d01ffd70a7831408adec34c847f9a7126840a6b404b3f9ee96be1b4597d",
      "transactionType": "CALL",
      "contractName": null,
      "contractAddress": "0xe72fc88185eb7403eb730a430b8cd545662976fd",
      "function": "setApprovalForAll(address,bool)",
      "arguments": [
        "0xd7407D2DfE8743E116f264031EC0bC790f55dBfD",
        "true"
      ],
      "transaction": {
        "from": "0x0766aa63a1bce9f8bd24c7ca476ac78cac570dd8",
        "to": "0xe72fc88185eb7403eb730a430b8cd545662976fd",
        "gas": "0x107aa",
        "value": "0x0",
        "input": "0xa22cb465000000000000000000000000d7407d2dfe8743e116f264031ec0bc790f55dbfd0000000000000000000000000000000000000000000000000000000000000001",
        "nonce": "0x3",
        "chainId": "0x13882"
      },
      "additionalContracts": [],
      "isFixedGasLimit": false
    }
  ],
  "receipts": [
    {
      "status": "0x1",
      "cumulativeGasUsed": "0x1101f",
      "logs": [
        {
          "address": "0xe72fc88185eb7403eb730a430b8cd545662976fd",
          "topics": [
            "0xc3d58168c5ae7397731d063d5bbf3d657854427343f4c083240f7aacaa2d0f62",
            "0x0000000000000000000000000766aa63a1bce9f8bd24c7ca476ac78cac570dd8",
            "0x0000000000000000000000000000000000000000000000000000000000000000",
            "0x0000000000000000000000000766aa63a1bce9f8bd24c7ca476ac78cac570dd8"
          ],
          "data": "0x00000000000000000000000000000000000000000000000000000000000000000000000000000000000000000000000000000000000000000000000000000064",
          "blockHash": "0x206f49d0e0ec2ccb7135a0700289f7f8f911aa4828213d925bb845e36c34ecd3",
          "blockNumber": "0xcc585e",
          "transactionHash": "0xe460a1f7953e14d5f5f5d74d6ae9fa897f8cb4fccd52c4de30a6f42ed311b216",
          "transactionIndex": "0x1",
          "logIndex": "0x2",
          "removed": false
        },
        {
          "address": "0x0000000000000000000000000000000000001010",
          "topics": [
            "0x4dfe1bbbcf077ddc3e01291eea2d5c70c2b422b415d95645b9adcfd678cb1d63",
            "0x0000000000000000000000000000000000000000000000000000000000001010",
            "0x0000000000000000000000000766aa63a1bce9f8bd24c7ca476ac78cac570dd8",
            "0x00000000000000000000000009207a6efee346cb3e4a54ac18523e3715d38b3f"
          ],
          "data": "0x000000000000000000000000000000000000000000000000000fb397dc862b9200000000000000000000000000000000000000000000000009e8842553e2a63100000000000000000000000000000000000000000000032a3feefba51dc24e0300000000000000000000000000000000000000000000000009d8d08d775c7a9f00000000000000000000000000000000000000000000032a3ffeaf3cfa487995",
          "blockHash": "0x206f49d0e0ec2ccb7135a0700289f7f8f911aa4828213d925bb845e36c34ecd3",
          "blockNumber": "0xcc585e",
          "transactionHash": "0xe460a1f7953e14d5f5f5d74d6ae9fa897f8cb4fccd52c4de30a6f42ed311b216",
          "transactionIndex": "0x1",
          "logIndex": "0x3",
          "removed": false
        }
      ],
      "logsBloom": "0x000000000000000000000000000000000000000000000000000000000000000000000000000000000000000000000000000080000000000000000100000020000000002000000000000000000000008000000000000000000001000000000000000001000200000000000000000008000000000000000000800000000040000000000000000000000000000000000000000040000000000000000000000000002000000000000000000004000000000000000000000000000010000000000040000000000000000000010000000000000000000000080000001000000000200000000000000000000000000100000000000000000000000000000a0000100000",
      "type": "0x0",
      "transactionHash": "0xe460a1f7953e14d5f5f5d74d6ae9fa897f8cb4fccd52c4de30a6f42ed311b216",
      "transactionIndex": "0x1",
      "blockHash": "0x206f49d0e0ec2ccb7135a0700289f7f8f911aa4828213d925bb845e36c34ecd3",
      "blockNumber": "0xcc585e",
      "gasUsed": "0xbe17",
      "effectiveGasPrice": "0x1525502e4d",
      "from": "0x0766aa63a1bce9f8bd24c7ca476ac78cac570dd8",
      "to": "0xe72fc88185eb7403eb730a430b8cd545662976fd",
      "contractAddress": null
    },
    {
      "status": "0x1",
      "cumulativeGasUsed": "0x1c468",
      "logs": [
        {
          "address": "0xe72fc88185eb7403eb730a430b8cd545662976fd",
          "topics": [
            "0x17307eab39ab6107e8899845ad3d59bd9653f200f220920489ca2b5937696c31",
            "0x0000000000000000000000000766aa63a1bce9f8bd24c7ca476ac78cac570dd8",
            "0x000000000000000000000000d7407d2dfe8743e116f264031ec0bc790f55dbfd"
          ],
          "data": "0x0000000000000000000000000000000000000000000000000000000000000001",
          "blockHash": "0x206f49d0e0ec2ccb7135a0700289f7f8f911aa4828213d925bb845e36c34ecd3",
          "blockNumber": "0xcc585e",
          "transactionHash": "0x6f257d01ffd70a7831408adec34c847f9a7126840a6b404b3f9ee96be1b4597d",
          "transactionIndex": "0x2",
          "logIndex": "0x4",
          "removed": false
        },
        {
          "address": "0x0000000000000000000000000000000000001010",
          "topics": [
            "0x4dfe1bbbcf077ddc3e01291eea2d5c70c2b422b415d95645b9adcfd678cb1d63",
            "0x0000000000000000000000000000000000000000000000000000000000001010",
            "0x0000000000000000000000000766aa63a1bce9f8bd24c7ca476ac78cac570dd8",
            "0x00000000000000000000000009207a6efee346cb3e4a54ac18523e3715d38b3f"
          ],
          "data": "0x000000000000000000000000000000000000000000000000000ee4440460c7ae00000000000000000000000000000000000000000000000009d8d08d7751574600000000000000000000000000000000000000000000032a3ffeaf3cfa48799500000000000000000000000000000000000000000000000009c9ec4972f08f9800000000000000000000000000000000000000000000032a400d9380fea94143",
          "blockHash": "0x206f49d0e0ec2ccb7135a0700289f7f8f911aa4828213d925bb845e36c34ecd3",
          "blockNumber": "0xcc585e",
          "transactionHash": "0x6f257d01ffd70a7831408adec34c847f9a7126840a6b404b3f9ee96be1b4597d",
          "transactionIndex": "0x2",
          "logIndex": "0x5",
          "removed": false
        }
      ],
      "logsBloom": "0x00000000000000000000000000000000000000000000000000000000000000000000000000000000000000000000000000008000000000000000010000000000000000200000000000000000000000800000000000000020000100000000000002000100000000000000000000000000000000000000000080000000004000000000000000000000000000000000000000004000000000000000000000000000200000000000000000000400000000000000000010000000001000000000004000000000000000000001000000000000000000000000000000100000000000000000200800000000000000014000000000000000000000000000020000100000",
      "type": "0x0",
      "transactionHash": "0x6f257d01ffd70a7831408adec34c847f9a7126840a6b404b3f9ee96be1b4597d",
      "transactionIndex": "0x2",
      "blockHash": "0x206f49d0e0ec2ccb7135a0700289f7f8f911aa4828213d925bb845e36c34ecd3",
      "blockNumber": "0xcc585e",
      "gasUsed": "0xb449",
      "effectiveGasPrice": "0x1525502e4d",
      "from": "0x0766aa63a1bce9f8bd24c7ca476ac78cac570dd8",
      "to": "0xe72fc88185eb7403eb730a430b8cd545662976fd",
      "contractAddress": null
    }
  ],
  "libraries": [],
  "pending": [],
  "returns": {},
  "timestamp": 1729403671,
  "chain": 80002,
  "commit": "c239909"
}